{"abi":[{"type":"constructor","inputs":[],"stateMutability":"nonpayable"},{"type":"function","name":"allowanceCheck","inputs":[{"name":"_token","type":"address","internalType":"contract IERC20"},{"name":"_owner","type":"address","internalType":"address"},{"name":"_spender","type":"address","internalType":"address"}],"outputs":[],"stateMutability":"view"},{"type":"function","name":"approval","inputs":[{"name":"_token","type":"address","internalType":"contract IERC20"},{"name":"_spender","type":"address","internalType":"address"},{"name":"_value","type":"uint256","internalType":"uint256"}],"outputs":[],"stateMutability":"nonpayable"},{"type":"function","name":"transact","inputs":[{"name":"_token","type":"address","internalType":"contract IERC20"},{"name":"_sender","type":"address","internalType":"address"},{"name":"_recipient","type":"address","internalType":"address"},{"name":"_amount","type":"uint256","internalType":"uint256"}],"outputs":[],"stateMutability":"nonpayable"}],"bytecode":{"object":"0x60808060405234610016576106ec908161001c8239f35b600080fdfe6080604081815260048036101561001557600080fd5b600092833560e01c9081633c22c7b314610469575080635c52a5f21461030a5763b11bce6c1461004457600080fd5b346103065760803660031901126103065761005d6105c3565b6100656105de565b61006d6105f4565b6064948535936001600160a01b0393919291841690338290036102d35784168351956370a0823160e01b8752828888015260209560249787818a81875afa9081156102c9579083918d91610294575b501061025c579289898c8a958a958280809a8d8051906100db8261060a565b603982527f73656e64657220616464726573733a202573207c7c20726563697069656e74208c8301527f616464726573733a202573207c7c20616d6f756e743a202573000000000000008183015251636eb7943d60e01b818d0190815260809d82019d909d529182916101529060a4840190610676565b9e8b6044840152169d8e8a83015285608483015203601f1981018252610178908261063c565b516a636f6e736f6c652e6c6f679a8b5afa508a51998a9687956323b872dd60e01b87528601528d85015260448401525af1928315610252578293610221575b5083516332458eed60e01b8682019081529315801588830152878252938392916101e08161060a565b51915afa506101ed578580f35b5162461bcd60e51b81529283015260159082015274151bdad95b881d1c985b9cd9995c8819985a5b1959605a1b6044820152fd5b8291935061024490863d881161024b575b61023c818361063c565b81019061065e565b92906101b7565b503d610232565b84513d84823e3d90fd5b855162461bcd60e51b8152808a018890526014818a015273496e73756666696369656e742062616c616e636560601b60448201528a90fd5b809250898092503d83116102c2575b6102ad818361063c565b810103126102be57829051386100bc565b8b80fd5b503d6102a3565b87513d8e823e3d90fd5b835162461bcd60e51b8152602081890152600e60248201526d139bdd08185d5d1a1bdc9a5e995960921b60448201528890fd5b8280fd5b509034610306576060366003190112610306576103256105c3565b9061032e6105de565b918460018060a01b03938484519163095ea7b360e01b835216928387830152604435602483015281604481856020998a95165af190811561025257908291829161044c575b508451906103808261060a565b602c82527f417070726f7665643f3a202573207c7c2043616c6c657220436f6e7472616374878301526b20616464726573733a20257360a01b86830152610403865180926103e68a830195631265776760e31b8752606060248501526084840190610676565b90159788156044840152606483015203601f19810183528261063c565b51906a636f6e736f6c652e6c6f675afa5061041c578380f35b5162461bcd60e51b815291820152600c60248201526b139bdd08185c1c1c9bdd995960a21b604482015260649150fd5b6104639150863d881161024b5761023c818361063c565b38610373565b8484849234610306576060366003190112610306576104866105c3565b61048e6105de565b906104976105f4565b636eb1769f60e11b84526001600160a01b039283168785015282166024840152602091829184916044918391165afa9182156105b6578492610583575b5082519183830183811067ffffffffffffffff82111761057057849286959261055c9287969452601784527f416c6c6f77616e636520617661696c61626c653a2025730000000000000000008285015261054885519485938401966309710a9d60e41b885260248501526064840190610676565b90604483015203601f19810183528261063c565b51906a636f6e736f6c652e6c6f675afa5080f35b634e487b7160e01b865260418752602486fd5b9080925081813d83116105af575b61059b818361063c565b810103126105ab575190856104d4565b8380fd5b503d610591565b50505051903d90823e3d90fd5b600435906001600160a01b03821682036105d957565b600080fd5b602435906001600160a01b03821682036105d957565b604435906001600160a01b03821682036105d957565b6060810190811067ffffffffffffffff82111761062657604052565b634e487b7160e01b600052604160045260246000fd5b90601f8019910116810190811067ffffffffffffffff82111761062657604052565b908160209103126105d9575180151581036105d95790565b919082519283825260005b8481106106a2575050826000602080949584010152601f8019910116010190565b60208183018101518483018201520161068156fea2646970667358221220b54fdeb11a0157a1fe37cd44c28060ecdef0c951b85d64cd24e50c8291c3ec4964736f6c63430008170033","linkReferences":{}},"methodIdentifiers":{"allowanceCheck(address,address,address)":"3c22c7b3","approval(address,address,uint256)":"5c52a5f2","transact(address,address,address,uint256)":"b11bce6c"},"id":2}