{"abi":[{"type":"constructor","inputs":[{"name":"_greeting","type":"string","internalType":"string"}],"stateMutability":"nonpayable"},{"type":"function","name":"greet","inputs":[],"outputs":[{"name":"","type":"string","internalType":"string"}],"stateMutability":"view"},{"type":"function","name":"updateGreeting","inputs":[{"name":"_greeting","type":"string","internalType":"string"}],"outputs":[],"stateMutability":"nonpayable"},{"type":"function","name":"version","inputs":[],"outputs":[{"name":"","type":"uint256","internalType":"uint256"}],"stateMutability":"view"}],"bytecode":{"object":"0x6080604052346101f85761064c80380380610019816101fd565b928339810190602080828403126101f85781516001600160401b03928382116101f8570192601f908082860112156101f85784518481116101ce57601f1995610067828501881686016101fd565b928284528583830101116101f857849060005b8381106101e4575050600091830101526001926000845581519485116101ce576000548481811c911680156101c4575b828210146101ae57838111610168575b50809285116001146101035750839450908392916000946100f8575b50501b916000199060031b1c1916176000555b60405161042990816102238239f35b0151925038806100d6565b9294849081166000805284600020946000905b8883831061014e5750505010610135575b505050811b016000556100e9565b015160001960f88460031b161c19169055388080610127565b858701518855909601959485019487935090810190610116565b60008052816000208480880160051c8201928489106101a5575b0160051c019085905b8281106101995750506100ba565b6000815501859061018b565b92508192610182565b634e487b7160e01b600052602260045260246000fd5b90607f16906100aa565b634e487b7160e01b600052604160045260246000fd5b81810183015185820184015286920161007a565b600080fd5b6040519190601f01601f191682016001600160401b038111838210176101ce5760405256fe608060408181526004918236101561001657600080fd5b600092833560e01c9182632867cc441461017d575050806354fd4d501461015f5763cfae32171461004657600080fd5b3461015b578160031936011261015b57805182805482610065826103b9565b95868252602096879360019060018116908160001461013a57506001146100df575b50506100999250959392950382610381565b82519382859384528251928382860152825b8481106100c957505050828201840152601f01601f19168101030190f35b81810183015188820188015287955082016100ab565b8580527f290decd9548b62a8d60345a988386fc84ba6bc95484008f6362f93160ef3e5639492508591905b81831061012257508894505082010161009938610087565b8554888401850152948501948794509183019161010a565b91505061009994925060ff191682840152151560051b820101869238610087565b5080fd5b503461015b578160031936011261015b576020906001549051908152f35b84925034610362576020918260031936011261037d5780359267ffffffffffffffff928385116103795736602386011215610379578483013594848611610366578690601f19966101d58589601f8401160185610381565b8084523660248284010111610362578060248693018386013783010152600192835484810180911161034f578455815194851161033c575061021786546103b9565b601f81116102d8575b5081601f851160011461025b5750839450908392918694610250575b50501b916000199060031b1c191617815580f35b01519250858061023c565b9294849081168780527f290decd9548b62a8d60345a988386fc84ba6bc95484008f6362f93160ef3e5639488905b888383106102be57505050106102a5575b505050811b01815580f35b015160001960f88460031b161c1916905583808061029a565b858701518855909601959485019487935090810190610289565b8680527f290decd9548b62a8d60345a988386fc84ba6bc95484008f6362f93160ef3e563601f860160051c810191848710610332575b601f0160051c019084905b828110610327575050610220565b888155018490610319565b909150819061030e565b634e487b7160e01b875260419052602486fd5b634e487b7160e01b885260118252602488fd5b8280fd5b634e487b7160e01b875260418452602487fd5b8580fd5b8380fd5b90601f8019910116810190811067ffffffffffffffff8211176103a357604052565b634e487b7160e01b600052604160045260246000fd5b90600182811c921680156103e9575b60208310146103d357565b634e487b7160e01b600052602260045260246000fd5b91607f16916103c856fea2646970667358221220941710e879ff3cd47ae7cf60f42355233755e2719be9d546f21c2785bd314c2364736f6c63430008170033","linkReferences":{}},"methodIdentifiers":{"greet()":"cfae3217","updateGreeting(string)":"2867cc44","version()":"54fd4d50"},"id":27}