{"abi":[{"type":"function","name":"add","inputs":[{"name":"num","type":"uint256","internalType":"uint256"}],"outputs":[],"stateMutability":"nonpayable"},{"type":"function","name":"get","inputs":[],"outputs":[{"name":"","type":"uint256","internalType":"uint256"}],"stateMutability":"view"},{"type":"function","name":"multiple","inputs":[{"name":"num","type":"uint256","internalType":"uint256"}],"outputs":[],"stateMutability":"nonpayable"},{"type":"function","name":"subtract","inputs":[{"name":"num","type":"uint256","internalType":"uint256"}],"outputs":[],"stateMutability":"nonpayable"}],"bytecode":{"object":"0x6080806040523461001b57600560005561012090816100218239f35b600080fdfe6080604052600480361015601257600080fd5b600090813560e01c80631003e2d21460c75780631dc05f171460a45780636d4ce63c1460865763cd40318014604657600080fd5b3460825760203660031901126082578035908254828102928184041490151715606f5750815580f35b634e487b7160e01b835260119052602482fd5b5080fd5b823460a1578060031936011260a15760209054604051908152f35b80fd5b5034608257602036600319011260825781549080358203918211606f5750815580f35b5034608257602036600319011260825781549080358201809211606f5750815580f3fea2646970667358221220efa67fd978d6e2febd0de17ace415b6240e5cd153f24436e5a86c1dd12c55ea564736f6c63430008170033","linkReferences":{}},"methodIdentifiers":{"add(uint256)":"1003e2d2","get()":"6d4ce63c","multiple(uint256)":"cd403180","subtract(uint256)":"1dc05f17"},"id":25}