{"abi":[{"type":"function","name":"add","inputs":[{"name":"num","type":"uint256","internalType":"uint256"}],"outputs":[],"stateMutability":"nonpayable"},{"type":"function","name":"get","inputs":[],"outputs":[{"name":"","type":"uint256","internalType":"uint256"}],"stateMutability":"view"},{"type":"function","name":"multiple","inputs":[{"name":"num","type":"uint256","internalType":"uint256"}],"outputs":[],"stateMutability":"nonpayable"},{"type":"function","name":"subtract","inputs":[{"name":"num","type":"uint256","internalType":"uint256"}],"outputs":[],"stateMutability":"nonpayable"}],"bytecode":{"object":"0x6080604052600560005534801561001557600080fd5b50610184806100256000396000f3fe608060405234801561001057600080fd5b506004361061004c5760003560e01c80631003e2d2146100515780631dc05f17146100665780636d4ce63c14610079578063cd4031801461008e575b600080fd5b61006461005f3660046100dc565b6100a1565b005b6100646100743660046100dc565b6100ba565b60005460405190815260200160405180910390f35b61006461009c3660046100dc565b6100cb565b806000808282546100b2919061010b565b909155505050565b806000808282546100b29190610124565b806000808282546100b29190610137565b6000602082840312156100ee57600080fd5b5035919050565b634e487b7160e01b600052601160045260246000fd5b8082018082111561011e5761011e6100f5565b92915050565b8181038181111561011e5761011e6100f5565b808202811582820484141761011e5761011e6100f556fea2646970667358221220096f4fd48336f3875f1eef715c0100665aefdc8f702dabc9b62182ed827b75fd64736f6c63430008170033","linkReferences":{}},"methodIdentifiers":{"add(uint256)":"1003e2d2","get()":"6d4ce63c","multiple(uint256)":"cd403180","subtract(uint256)":"1dc05f17"},"id":20}