{"abi":[{"type":"constructor","inputs":[],"stateMutability":"nonpayable"},{"type":"function","name":"transferTest","inputs":[{"name":"_token","type":"address","internalType":"contract IERC20"},{"name":"_sender","type":"address","internalType":"address"},{"name":"_recipient","type":"address","internalType":"address"},{"name":"_amount","type":"uint256","internalType":"uint256"}],"outputs":[],"stateMutability":"nonpayable"}],"bytecode":{"object":"0x608080604052346100165761032e908161001c8239f35b600080fdfe6080604081815260048036101561001557600080fd5b600092833560e01c63bbc0f22b1461002c57600080fd5b3461029f57608036600319011261029f576001600160a01b0382358181169491929085900361029b5760249182359380851680950361029757604494853591821680920361029357606497883594823303610264575083516370a0823160e01b81528881018390526020959086818981865afa9081156101ee579082918d9161022f575b50106101f857845163095ea7b360e01b8152808a0184905287810182905286818a818f875af19081156101ee578c916101d1575b501561019157888b8794938c93885197889687956323b872dd60e01b87528601528b8501528b8401525af190811561018757889161015a575b5015610127578680f35b5162461bcd60e51b81529384015260159083015274151bdad95b881d1c985b9cd9995c8819985a5b1959605a1b90820152fd5b61017a9150833d8511610180575b61017281836102a3565b8101906102db565b3861011d565b503d610168565b82513d8a823e3d90fd5b845162461bcd60e51b8152808a018790526018818901527f5472616e73666572206973206e6f7420617070726f7665640000000000000000818a01528a90fd5b6101e89150873d89116101805761017281836102a3565b386100e4565b86513d8e823e3d90fd5b845162461bcd60e51b8152808a0187905260148189015273496e73756666696369656e742062616c616e636560601b818a01528a90fd5b809250888092503d831161025d575b61024881836102a3565b8101031261025957819051386100b0565b8b80fd5b503d61023e565b62461bcd60e51b8152602089820152600e878201526d139bdd08185d5d1a1bdc9a5e995960921b888201528990fd5b8880fd5b8780fd5b8580fd5b8380fd5b90601f8019910116810190811067ffffffffffffffff8211176102c557604052565b634e487b7160e01b600052604160045260246000fd5b908160209103126102f3575180151581036102f35790565b600080fdfea264697066735822122048c9820046fb8270254436b2f17e690df26d03f81e5335ae8ff9c88f5faf013464736f6c63430008170033","linkReferences":{}},"methodIdentifiers":{"transferTest(address,address,address,uint256)":"bbc0f22b"},"id":1}