{"abi":[{"type":"constructor","inputs":[],"stateMutability":"nonpayable"},{"type":"function","name":"transfer","inputs":[{"name":"_token","type":"address","internalType":"contract IERC20"},{"name":"_sender","type":"address","internalType":"address"},{"name":"_recipient","type":"address","internalType":"address"},{"name":"_amount","type":"uint256","internalType":"uint256"}],"outputs":[],"stateMutability":"nonpayable"}],"bytecode":{"object":"0x608060405234801561001057600080fd5b506103c4806100206000396000f3fe608060405234801561001057600080fd5b506004361061002b5760003560e01c8063f18d03cc14610030575b600080fd5b61004361003e3660046102fb565b610045565b005b336001600160a01b038416146100935760405162461bcd60e51b815260206004820152600e60248201526d139bdd08185d5d1a1bdc9a5e995960921b60448201526064015b60405180910390fd5b6040516370a0823160e01b81526001600160a01b0384811660048301528291908616906370a0823190602401602060405180830381865afa1580156100dc573d6000803e3d6000fd5b505050506040513d601f19601f82011682018060405250810190610100919061034c565b10156101455760405162461bcd60e51b8152602060048201526014602482015273496e73756666696369656e742062616c616e636560601b604482015260640161008a565b60405163095ea7b360e01b81526001600160a01b0384811660048301526024820183905285169063095ea7b3906044016020604051808303816000875af1158015610194573d6000803e3d6000fd5b505050506040513d601f19601f820116820180604052508101906101b89190610365565b6102045760405162461bcd60e51b815260206004820152601860248201527f5472616e73666572206973206e6f7420617070726f7665640000000000000000604482015260640161008a565b61021084848484610216565b50505050565b6040516323b872dd60e01b81526001600160a01b038481166004830152838116602483015260448201839052600091908616906323b872dd906064016020604051808303816000875af1158015610271573d6000803e3d6000fd5b505050506040513d601f19601f820116820180604052508101906102959190610365565b9050806102dc5760405162461bcd60e51b8152602060048201526015602482015274151bdad95b881d1c985b9cd9995c8819985a5b1959605a1b604482015260640161008a565b5050505050565b6001600160a01b03811681146102f857600080fd5b50565b6000806000806080858703121561031157600080fd5b843561031c816102e3565b9350602085013561032c816102e3565b9250604085013561033c816102e3565b9396929550929360600135925050565b60006020828403121561035e57600080fd5b5051919050565b60006020828403121561037757600080fd5b8151801515811461038757600080fd5b939250505056fea264697066735822122090694612ea13412b8f5277ca12e5f49fc23319726c2342ffa6e1751d76a0df1b64736f6c63430008170033","linkReferences":{}},"methodIdentifiers":{"transfer(address,address,address,uint256)":"f18d03cc"},"id":5}